:020000040800F2
:10000000683E00209D010008214800080B2A0008D6
:100010001D480008C90E0008BD4A00080000000085
:1000200000000000000000000000000005010008C2
:10003000CD0E000800000000490100084D480008EE
:10004000B7010008B7010008B7010008B7010008B0
:10005000B7010008B7010008B7010008B7010008A0
:10006000B7010008B7010008B7010008B701000890
:10007000B7010008B7010008B7010008B701000880
:10008000B7010008B7010008B7010008B701000870
:10009000B7010008B7010008B7010008B701000860
:1000A000B7010008B7010008B7010008B701000850
:1000B000B7010008B7010008B7010008B701000840
:1000C000B7010008B7010008B7010008B701000830
:1000D000B7010008B7010008B7010008B701000820
:1000E000B7010008B7010008B7010008DFF810D019
:1000F00000F0ECFC004800473D5F0008AFF30080D3
:10010000683E0020224B19680868B0E8F00F80F3C1
:100110000988BFF36F8F4FF0000080F311884EF015
:100120000D0E70470000000006480068006880F36C
:10013000088862B661B6BFF34F8FBFF36F8F00DFE1
:1001400000BF00BF08ED00E0EFF30980BFF36F8F41
:100150000F4B1A6820E9F00F106008B54FF05000FF
:1001600080F31188BFF34F8FBFF36F8F06F03AFD16
:100170004FF0000080F31188BDE808401968086856
:10018000B0E8F00F80F30988BFF36F8F704700BFAE
:100190002C010020EFF305807047000006488047DF
:1001A00006480047FEE7FEE7FEE7FEE7FEE7FEE75C
:1001B000FEE7FEE7FEE7FEE7C7480008ED0000089F
:1001C000202A04DB203A21FA02F00021704721FAAC
:1001D00002F3D040C2F12002914008431946704713
:1001E000D2B201E000F8012B491EFBD27047002279
:1001F000F6E710B513460A4604461946FFF7F0FF26
:10020000204610BD421C10F8011B0029FBD1801AAA
:10021000704710B5002200E0521C835C8C5CA34246
:1002200001D1002BF8D1D8B2E1B2401A10BD0022A2
:10023000CBB20178994200D10246401C0029F8D186
:1002400010467047F0B480EA0102D40F4200B2EBCE
:10025000410F02D20246084611464A0042D0C30D61
:10026000DDB2C1F3C752AD1A202D35DAC1F3160144
:1002700041F4000204B15242C5F1200602FA06F12F
:100280002A411044B3EBD05F23D0C4B1012DA0EBC1
:10029000C35009DCF0BC4FF0004202EAC352DBB2AB
:1002A00000F5000000F027BB400000F1807000EB7B
:1002B000C350A0F1807040EAD170490009E04908BC
:1002C00041EAC071A0EBC35000F50000400800EB0C
:1002D000C350F0BC00F006BB6142012202EB4101B9
:1002E000001BF6E7F0BC704781F00041AAE780F000
:1002F0000040A7E780EA010210B502F00043400089
:1003000022D04A001FD0010E01EB1261C0F356004B
:10031000C2F3560240F4000042F40002A0FB0220A7
:1003200000047F39140400D0401C50EA124001D46C
:100330004000491EC2B20C0604EBD010401C40081D
:10034000802A02D003E0002010BD20F00100002927
:1003500000DA0020184310BD30B480EA010202F038
:10036000004530F0004221F0004013D090B1C30DA1
:10037000D40DC2F31601C0F31600E41A41F40001D3
:1003800040F400027D34914201D3641C00E0490036
:10039000002C02DA30BC002070474FF4000000232C
:1003A000914201D3891A034340084FEA4101F7D132
:1003B00051B1914202D14FF0004105E002D24FF01D
:1003C000010101E06FF0010103EBC450284430BC8F
:1003D00000F088BA2DE9FE4F804681EA0300C00F85
:1003E0000C46009021F0004123F00045B8EB0200DC
:1003F000A94105D24046214690461C460B4602467E
:1004000023F00040104347D0270DC7F30A00C3F381
:100410000A510290401A019040286BDAC3F313008E
:1004200040F4801B0098924620B10023D2EB030ACF
:1004300063EB0B0B01985946C0F14002504600F0A7
:1004400030FA06460D4650465946019A00F038FAF1
:1004500010EB08006141002487EA115284EAE77337
:100460001A4340D0009A62B3019A012A4FEA075218
:1004700015DC001B61EB02014FF0004202EA07525B
:10048000CDE90042001C41F5801132462B4600F0B8
:100490006FFA03B0BDE8F08F40462146F9E7001B34
:1004A00061EB0201001C41F5801300185B4120182C
:1004B000A2F5001747EB030140EAD570B6196D416C
:1004C00011E06D084FEA360645EAC0754FEA07525B
:1004D000001B61EB0201001C41F5801149084FEA45
:1004E00030000019514132462B4603B0BDE8F04FB1
:1004F00000F02FBA0098012240000023D0EB020246
:1005000063EBE073009821464FEAE074B8EB00001B
:1005100061EB0401E9E783F000435BE781F0004110
:1005200058E72DE9FE4F81EA030404F0004421F06E
:10053000004100944FF0000B23F0004350EA010407
:100540005ED052EA03045BD0C3F30A54C1F30A55E8
:100550002C44A4F2F3340194A0FB0254C1F3130120
:1005600041F48011C3F3130343F4801301FB0244ED
:1005700000FB034E840A970A44EA815447EA8357F2
:10058000A4FB076802958D0A05FB07854FEA932CAB
:1005900004FB0C542705029D4FEA065847EA16371C
:1005A000B5EB08056EEB070C870E920E47EA811734
:1005B00042EA8312A7FB0201B6EB0B0164EB0004D5
:1005C0002B0D43EA0C335E1844EB1C50DA465146BF
:1005D000E7FB0201C5F313044FEA0B3343EA14535C
:1005E0004FEA0432019C43EA0603A4F10C0402948E
:1005F000009CCDE900B400F0BBF903B0BDE8F08F7A
:1006000000200146F9E72DE9F04D81EA030404F0EA
:10061000004B21F0004514464FF0000A23F0004142
:1006200050EA050220D054EA01021DD0C5F30A5752
:100630000246C5F31303C1F31300C1F30A5640F495
:10064000801543F48013A7EB0608101BD64608F26A
:10065000FD3873EB050002D308F1010801E09218A0
:100660005B41B8F1000F03DA00200146BDE8F08DD0
:1006700000204FF48011064684460EE0171B73EBF2
:10068000050705D3121B63EB050306434CEA010C77
:1006900049084FEA300092185B4150EA0107EDD15A
:1006A00052EA030012D082EA040083EA05010843FB
:1006B00005D0101BAB4106D20122002306E0002228
:1006C0004FF0004302E06FF0010253101AEB0600F6
:1006D0004CEB085110EB0A0041EB0B01BDE8F04D6B
:1006E00000F037B9C10F80EAE0700844CA079623CA
:1006F000002100F000B90EB5C10F80EAE070084497
:10070000CA07002140F233438DE80E000A460B462B
:1007100000F02EF903B000BD0EB540F23341029156
:100720000021CDE900110A460B4600F021F903B083
:1007300000BD20F00040C10DC0F3160040F40000E1
:100740007F2901DA00207047962903DCC1F1960168
:10075000C8407047963988407047C1F30A5210B5B7
:10076000C1F3130140F2FF3341F480119A4201DAE0
:10077000002010BD40F233439A42A2F2334203DC20
:100780005242FFF71DFD10BD904010BD00F0004229
:1007900030F000400AD0C10D01F56071C0F31600C1
:1007A00042EA0151C2084007114370470020014648
:1007B000704701F0004330B421F0004150EA0102DB
:1007C00006D00A0DA2F56072C1F31301002A02DC03
:1007D00030BC00207047440F44EAC104C100E01857
:1007E00030BC00EBC25000F07DB80000002801DBF7
:1007F000C0F10040002901DBC1F100418142704796
:10080000002801DBC0F10040002901DBC1F10041FB
:100810008842704730B50B46014600202022012453
:1008200009E021FA02F59D4205D303FA02F5491BBE
:1008300004FA02F52844151EA2F10102F1DC30BDD4
:100840002DE9F05F0546002092469B468846064605
:10085000814640241BE02846414647462246FFF792
:10086000AFFC53465A46C01A914110D31146184660
:10087000224600F016F82D1A67EB01084F46224673
:100880000120002100F00DF817EB00094E41201E59
:10089000A4F10104DFDC484631462A464346BDE860
:1008A000F09F202A04DB203A00FA02F10020704772
:1008B0009140C2F1200320FA03F31943904070479E
:1008C000202A06DBCB17203A41FA02F043EAE07314
:1008D00006E041FA02F3D040C2F120029140084301
:1008E000194670470029A8BF7047401C490008BF3F
:1008F00020F00100704710B4B0FA80FC00FA0CF050
:1009000050EA010404BF10BC704749B1CCF1200487
:1009100021FA04F411FA0CF118BF01212143084314
:10092000A3EB0C01CB1D4FEA00614FEA102042BF40
:10093000002010BC704700EBC35010440029A4BF36
:1009400010BC7047401C490008BF20F0010010BCDB
:10095000704710B5141E73F1000408DA401C41F111
:10096000000192185B411A4301D120F0010010BD33
:100970002DE9F04D92469B4611B1B1FA81F202E0A9
:10098000B0FA80F220329046FFF78BFF04460F4604
:1009900040EA0A0041EA0B0153465A46084313D085
:1009A000114653EA010019D0C8F140025046FFF742
:1009B00007FC05460E46504659464246FFF771FF72
:1009C000084305D0012004E020463946BDE8F08DFB
:1009D0000020054346EAE0762C4337430A98630536
:1009E000E40AA0EB08000022FD0A44EA47540A305A
:1009F00002D500200146E9E7010510196941DDE94A
:100A0000084500196941BDE8F04DA2E770B521F035
:100A1000004303430CD0C1F30A550024D5EB040571
:100A200064EB0403D617AD1AB34102DB0020014684
:100A300070BD201841EB025170BDC1F30A52C1F3E1
:100A4000130140F2FF3341F480119A4202DA002090
:100A50000146704740F233439A42A2F2334202DC2D
:100A60005242FFF7ADBBFFF71CBF000030B5041EBC
:100A700071F1000404DB4FF00044404264EB0101DB
:100A8000141E73F1000405DB1C464FF00043524274
:100A900063EB04038B4208BF824230BD30B5041EB5
:100AA00071F1000404DB4FF00044404264EB0101AB
:100AB000141E73F1000405DB1C464FF00043524244
:100AC00063EB0403994208BF904230BD064C074DCA
:100AD00006E0E06840F0010394E80700984710340E
:100AE000AC42F6D3FFF706FB588B0008788B000862
:100AF00030B58C1810F8012B12F00F0301D110F84B
:100B0000013B120906D110F8012B03E010F8015B3C
:100B100001F8015B5B1EF9D101E001F8013B521EB7
:100B2000FBD1A142E6D3002030BD00007CB52F21CF
:100B300057A0FFF77CFB28B12F2155A0FFF777FBCB
:100B4000401C00E052A006465C21FFF770FB88B114
:100B50002F214FA0FFF76BFB28B12F214CA0FFF7EF
:100B600066FB401C00E04AA006465C21FFF75FFBE5
:100B7000401C0BE02F2146A0FFF759FB28B12F2185
:100B800043A0FFF754FB401C00E041A0054628228B
:100B9000294644A003F094FF49480A2100238022FB
:100BA000CDE9001047A14A4806F080F80446012C20
:100BB00035D12F2136A0FFF73AFB28B12F2134A0E1
:100BC000FFF735FB401C00E031A006465C21FFF733
:100BD0002EFB88B12F212EA0FFF729FB28B12F2152
:100BE0002BA0FFF724FB401C00E029A006465C2157
:100BF000FFF71DFB401C0BE02F2125A0FFF717FB83
:100C000028B12F2122A0FFF712FB401C00E020A0FA
:100C10000546352229462FA003F052FF34E02F214C
:100C20001BA0FFF704FB28B12F2119A0FFF7FFFA43
:100C3000401C00E016A006465C21FFF7F8FA88B1D8
:100C40002F2113A0FFF7F3FA28B12F2110A0FFF7EF
:100C5000EEFA401C00E00EA006465C21FFF7E7FA22
:100C6000401C0BE02F210AA0FFF7E1FA28B12F2149
:100C700007A0FFF7DCFA401C00E005A0054639227A
:100C800029461BA003F01CFF05F06EFF7CBD000091
:100C90002E2E5C4170705C4170705F5461736B2EDE
:100CA000630000005B25733A25645D424D53B5E750
:100CB000B3D8B9DCC0EDCFEEC4BF2E2E2E2E0A0065
:100CC0001000002073746172745F7461736B0000B4
:100CD000916400085B25733A25645DC6F4B6AFC81D
:100CE000CECEF1B4B4BDA8B3C9B9A62E2E2E0A003B
:100CF0005B25733A25645DC6F4B6AFC8CECEF1B4B9
:100D0000B4BDA8CAA7B0DC2E2E2E0A0008B502F08A
:100D1000F9F9012010230EA200210090202002F0FA
:100D20008DFB01201023052200210090382002F0C5
:100D300025FB01201023062200210090482002F00C
:100D40001DFB05F039FE02F055FA05F047FE08BD1F
:100D5000424D530038B50120102340A2194600909F
:100D6000002002F06BFB3E480021016041603D48DD
:100D70000068FFF70BFD044622460B463AA13848AF
:100D800003F0AEFE01201023354A194600901846A4
:100D900002F054FB0120102335A219460090402098
:100DA00002F04CFB2E480021016041603148006890
:100DB000FFF7ECFC044622460B462BA1284803F023
:100DC0008FFE01201023264A19460090502002F081
:100DD00035FB0120102328A220210090002002F0E2
:100DE0002DFB1F4800210160416024480068FFF787
:100DF000CDFC044622460B461BA1194803F070FEA9
:100E000001201023164A20210090184602F016FBFC
:100E1000012010231AA230210090002002F00EFBC6
:100E20000F4800210160416017480068FFF7AEFCE1
:100E3000044622460B460CA1094803F051FE01204E
:100E40001023074A30210090202002F0F7FA05F025
:100E5000B3FD02F0CFF905F0C1FD38BD563A0000F0
:100E60003000002024000020252E303266000000D3
:100E7000493A000020000020543A000028000020D9
:100E8000534F433A000000002C00002030B50246CA
:100E90000020072412E012F8013B584000230BE029
:100EA00000F0800525B1072585EA4005E8B201E09C
:100EB0004506280E5D1CEBB2082BF1DB0B1EA1F1E1
:100EC0000105E9B2E7D130BD00BFFEE7704772B659
:100ED00000BFFEE7F0B504460A46216894F82050AA
:100EE000012D01D0022D74D1D1F8000240F0010093
:100EF000C1F80002107D00F01F06012000FA06F381
:100F0000D1F81C029843C1F81C02D069C8B9D1F8C5
:100F10000C029843C1F80C02908880B2968940EA8E
:100F2000064601F51070576940F83760108880B2A6
:100F3000168940EA064601F51070576900EBC700B4
:100F40004660D069012819D1D1F80C021843C1F8C4
:100F50000C02908880B2168840EA064601F51070AF
:100F6000576940F83760908980B2168940EA064692
:100F700001F51070576900EBC7004660906928B909
:100F8000D1F804029843C1F8040204E0D1F8040245
:100F90001843C1F80402106928B9D1F81402984323
:100FA000C1F8140204E0D1F814021843C1F8140285
:100FB000106A012804D1D1F81C021843C1F81C02A0
:100FC000D1F8000220F00100C1F800020020F0BDBD
:100FD000FFE7606A40F4802060620120F7E710B507
:100FE0000246002092F82030012B01D0022B09D1BB
:100FF00021B91468E46804F0030003E0146824696C
:1010000004F0030010BD70B5044694F82050012D83
:1010100001D0022D7DD151B92068C06800F00300D5
:1010200080B9606A40F400106062012070BD2068E1
:10103000006900F0030028B9606A40F400106062A3
:101040000120F3E7206800F5D87000EB011000687C
:1010500000F004009060906840B9206800F5D870F6
:1010600000EB01100068400D106007E0206800F5FB
:10107000D87000EB01100068C0085060206800F5CF
:10108000D87000EB0110006800F00200D06020680A
:1010900000F5D87000EB0110406800F00F00082840
:1010A00002D30820106108E0206800F5D87000EB3A
:1010B0000110406800F00F001061206800F5D87042
:1010C00000EB0110406800F47F40000A9061206846
:1010D00000F5D87000EB01104068000C50612068EA
:1010E00000F5D87000EB011080681870206800F5DA
:1010F000D87000EB0110806800F47F40000A58703F
:10110000206800F5D87000EB0110806800F47F00C3
:1011100000E03CE0000C9870206800F5D87000EB0F
:1011200001108068000ED870206800F5D87000EBC0
:101130000110C0681871206800F5D87000EB01102C
:10114000C06800F47F40000A5871206800F5D8702C
:1011500000EB0110C06800F47F00000C987120685B
:1011600000F5D87000EB0110C068000ED87131B9DD
:101170002068C06840F020002668F06005E0206824
:10118000006940F020002668306100204EE7606A68
:1011900040F480206062012048E770B504460CB935
:1011A000012070BD94F8200010B9204600F0B0F87E
:1011B0002068006840F001002168086000F0C6FA6D
:1011C00005460DE000F0C2FA401B0A2808D9606A03
:1011D00040F400306062052084F820000120E0E740
:1011E0002068406800F001000028EBD0206800680B
:1011F00020F002002168086000F0A8FA05460DE022
:1012000000F0A4FA401B0A2808D9606A40F40030B4
:101210006062052084F820000120C2E72068406851
:1012200000F002000028EBD1207E012806D12068C2
:10123000006840F080002168086005E020680068D0
:1012400020F0800021680860607E012806D12068B7
:10125000006840F040002168086005E020680068F0
:1012600020F0400021680860A07E012806D1206897
:10127000006840F020002168086005E020680068F0
:1012800020F0200021680860E07E012806D1206857
:10129000006820F010002168086005E02068006800
:1012A00040F0100021680860207F012806D12068E6
:1012B000006840F008002168086005E020680068C8
:1012C00020F0080021680860607F012806D12068AE
:1012D000006840F004002168086005E020680068AC
:1012E00020F0040021680860D4E902010843216964
:1012F0000843616908436168491E08432168C86161
:1013000000206062012084F82000002049E70000EE
:1013100010B586B00446002002900390049005901A
:101320001A49206888422ED100BF1948C06940F090
:1013300000701749C8610846C06900F0007001904C
:1013400000BF00BF00BF0846806940F0040088610C
:101350000846806900F00400019000BF00BFC81477
:10136000029000200390049002A90A4800F058F867
:101370004FF480500290022003900320059002A9B0
:10138000044800F04DF806B010BD000000640040B5
:10139000001002400008014070B5044694F8200097
:1013A000012822D1022084F820002068006820F063
:1013B00001002168086000F0C9F905460DE000F061
:1013C000C5F9401B0A2808D9606A40F40030606201
:1013D000052084F82000012070BD2068406800F0DE
:1013E00001000028EBD16062F6E7606A40F400205B
:1013F00060620120F0E7000070B5044600F0A6F935
:1014000006462546681C10B104480078054400BF14
:1014100000F09CF9801BA842FAD370BD08000020A0
:101420002DE9F8470346002294466EE14FF001088B
:1014300008FA02F4D1F8008008EA0400A0427DD145
:10144000DFF8DCA2D1F80480A8EB0A09D0453AD035
:1014500014DCB8F1030F50D009DCB8F1000F31D023
:10146000B8F1010F1CD0B8F1020F49D120E0B8F15A
:10147000110F18D0B8F1120F42D11EE0B9F5881F34
:1014800025D006DCB9F5803F20D0B9F5801F37D1D3
:101490001AE0B9F5001F18D0B9F5041F30D117E0D4
:1014A000D1F80CC02DE0D1F80C8008F1040C28E034
:1014B000D1F80C8008F1080C23E0D1F80C8008F179
:1014C0000C0C1EE000BF00BF00BF00BF00BF00BF8C
:1014D000D1F80880B8F1000F02D14FF0040C0BE0F6
:1014E000D1F80880B8F1010F03D14FF0080C1C614E
:1014F00002E04FF0080C5C6103E04FF0000C00E0EC
:1015000000BF00BFFF2801D8984601E003F104089E
:101510004646FF2802D84FEA820803E0A2F10808F5
:101520004FEA88084746D6F800804FF00F0909FABD
:1015300007F928EA09080CFA07F900E088E048EA08
:101540000908C6F80080D1F8048008F08058B8F186
:10155000805F7DD100BFDFF8CC81D8F8188048F0DB
:101560000108DFF8C091C9F81880C846D8F818807B
:1015700008F00108CDF8008000BF00BF4FEAB9387D
:101580004FEA920958F829504FEA82784FEA1879C1
:101590004FF00F0808FA09F825EA0805DFF88881F6
:1015A000434502D14FF0000816E0DFF88081434543
:1015B00002D14FF001080FE0DFF87481434502D1FA
:1015C0004FF0020808E0DFF86C81434502D14FF08C
:1015D000030801E04FF004084FEA82794FEA1979D5
:1015E00008FA09F848EA0505DFF84C814FEA920944
:1015F00048F82950D1F8048008F48018B8F5801F05
:101600000AD1DFF83881D8F8008048EA0008DFF80E
:101610002C91C9F8008009E0DFF82081D8F800801B
:1016200028EA0008DFF81491C9F80080D1F8048096
:1016300008F40018B8F5001F10D1DFF8008108F198
:101640000408D8F8008048EA0008DFF8F09000E0CD
:101650005AE009F10409C9F800800DE0DFF8DC80E8
:1016600008F10408D8F8008028EA0008DFF8CC90D8
:1016700009F10409C9F80080D1F8048008F40038A1
:10168000B8F5003F0ED1DFF8B480A8F10408D8F80F
:10169000008048EA0008DFF8A490A9F10409C9F81D
:1016A00000800DE0DFF89480A8F10408D8F80080ED
:1016B00028EA0008DFF88490A9F10409C9F800803D
:1016C000D1F8048008F48038B8F5803F0ED1DFF8F7
:1016D0006C80A8F10808D8F8008048EA0008DFF814
:1016E0005C90A9F10809C9F800800DE0DFF84C8092
:1016F000A8F10808D8F8008028EA0008DFF83C9034
:10170000A9F10809C9F80080521CD1F8008028FA14
:1017100002F8B8F1000F7FF489AEBDE8F887000049
:10172000000011100010024000080140000C0140B0
:10173000001001400014014008000140080401406D
:101740000AB1016101E00B040361704701480068C0
:10175000704700000000002070B504460CB901205D
:1017600070BD94F83D0028B9002084F83C00204664
:1017700000F0FEFB242084F83D002068006820F083
:101780000100216808602068006840F4004021687A
:1017900008602068006820F400402168086000F0BC
:1017A000B1FD05465C496068884206D85B488542C1
:1017B00001D2012007E0002005E05948854201D20E
:1017C000012000E00020012800D1C9E75548B5FB01
:1017D000F0F62068406820F03F0030432168486000
:1017E0004D496068884201D8701C07E04FF496703C
:1017F00070434FF47A71B0FBF1F0401C2168096A24
:1018000021F03F010843216808624349606888422B
:1018100014D8681E61684900B0FBF1F0401CC0F3A9
:101820000B00042801D204203DE0681E61684900D5
:10183000B0FBF1F0401CC0F30B0034E0A06838B9F5
:10184000681E616801EB4101B0FBF1F0401C0AE049
:10185000681E616801EBC10202EB0111B0FBF1F0FF
:10186000401C40F48040C0F30B0008B901201AE08E
:10187000A06848B9681E616801EB4101B0FBF1F056
:10188000401CC0F30B000CE0681E616801EBC10254
:1018900002EB0111B0FBF1F0401CC0F30B0040F46F
:1018A000804040F400402168C9694CF6FF729143C2
:1018B00008432168C861D4E9070108432168096821
:1018C00021F0C001084321680860D4E903100843EF
:1018D0002168896848F2FF32914308432168886093
:1018E000D4E9050108432168C96821F0FF010843D4
:1018F0002168C8602068006840F001002168086025
:1019000000202064202084F83D000020206384F81B
:101910003E0000BF24E70000A086010080841E0076
:1019200000093D0040420F002DE9F8430446894676
:1019300016461F46DDF82080FFF708FF054694F89D
:101940003D0020287ED119230122514920460095CF
:1019500001F02FFA10B10220BDE8F88300BF94F81F
:101960003C00012801D10220F6E7012084F83C0068
:1019700000BF2068006800F0010028B920680068F6
:1019800040F00100216808602068006820F40060D1
:1019900021680860212084F83D00102084F83E0072
:1019A0000020206466626785608D20853948E0628A
:1019B0002B4642464946204601F048F808B101202E
:1019C000CAE700BF002000902068406900902068AE
:1019D0008069009000BF00BF44E02A46414620468F
:1019E00001F008FB50B1206C042805D12068006884
:1019F00040F40070216808600120ADE7606A00785B
:101A000021680861606A401C6062608D401E6085CC
:101A1000208D401E208520684069C0F3800070B191
:101A2000208D60B1606A007821680861606A401C9E
:101A30006062608D401E6085208D401E20852A4694
:101A4000414600E022E0204601F080F950B1206CD0
:101A5000042805D12068006840F4007021680860FF
:101A6000012079E7208D0028B7D12068006840F474
:101A7000007021680860202084F83D00002084F870
:101A80003E0000BF84F83C0000BF65E7022063E72A
:101A9000020010000000FFFF2DE9FE4F04460F4634
:101AA00090469946DDE90CAB0E9E00200290FFF7B0
:101AB0004DFE054694F83D00202872D119230122DD
:101AC000CE492046009501F074F910B10220BDE81E
:101AD000FE8F00BF94F83C00012801D10220F6E7F8
:101AE000012084F83C0000BF2068006800F001007D
:101AF00028B92068006840F001002168086020686B
:101B0000006820F4006021680860222084F83D000D
:101B1000402084F83E0000202064C4F824A0A4F8EB
:101B20002AB0608D2085B648E0624B464246394671
:101B30002046CDE9006500F0E9FF08B10120C6E7C5
:101B4000208D88B900BF0020019020684069019075
:101B500020688069019000BF00BF2068006840F4E1
:101B60000070216808604BE0208D01281AD12068A0
:101B7000006820F480602168086072B600BF002011
:101B8000019020684069019020688069019000BF41
:101B900000BF2068006840F400702168086062B6E9
:101BA0002EE029E1208D022819D12068006840F438
:101BB00000602168086072B600BF002001902068B4
:101BC0004069019020688069019000BF00BF2068D3
:101BD000006820F480602168086062B610E0206828
:101BE000006840F480602168086000BF0020019018
:101BF00020684069019020688069019000BF00BFA3
:101C0000EBE0208D03287DD8208D012815D12A46B0
:101C10003146204601F0A9F908B1012057E72068B4
:101C20000069616A0870606A401C6062208D401E15
:101C30002085608D401E6085CFE0208D02282CD14C
:101C4000334600226F492046009501F0B2F808B1F2
:101C500001203CE772B62068006840F400702168FB
:101C6000086020680069616A0870606A401C6062F0
:101C7000208D401E2085608D401E608562B62068E4
:101C80000069616A0870606A401C6062208D401EB5
:101C90002085608D401E60859FE0334600225949B3
:101CA0002046009501F085F808B101200FE7206873
:101CB000006820F480602168086072B620680069BE
:101CC000616A0870606A401C6062208D401E208539
:101CD000608D401E60854C4800681921B0FBF1F012
:101CE0004FF47A71B0FBF1F0C0EBC00000EB800064
:101CF000029000BF0298401E02900298A8B90020EE
:101D0000206300E039E0202084F83D00002084F8C2
:101D10003E00206C40F02000206462B600BF00202E
:101D200084F83C0000BF0120D1E620684069C0F380
:101D300080000028DED02068006840F40070216830
:101D4000086020680069616A0870606A401C60620F
:101D5000208D401E2085608D401E608562B6206803
:101D60000069616A0870606A401C6062208D401ED4
:101D70002085608D401E60852FE02A463146204632
:101D800001F0F3F808B10120A1E620680069616A5A
:101D90000870606A401C6062208D401E2085608D46
:101DA000401E608520684069C0F38000A8B1208D86
:101DB000032805D12068006820F48060216808604D
:101DC00020680069616A0870606A401C6062208D4A
:101DD000401E2085608D401E6085208D00287FF488
:101DE00010AF202084F83D00002084F83E0000BFA2
:101DF00084F83C0000BF6AE6022068E6020010009A
:101E00000000FFFF040001000C0000202DE9FC5F32
:101E100004460F4690469946DDE90CAB0E9EFFF74F
:101E200095FC054694F83D0020287DD11923012218
:101E30004D492046009500F0BCFF10B10220BDE8DE
:101E4000FC9F00BF94F83C00012801D10220F6E776
:101E5000012084F83C0000BF2068006800F0010009
:101E600028B92068006840F00100216808602068F7
:101E7000006820F4006021680860212084F83D009B
:101E8000402084F83E0000202064C4F824A0A4F878
:101E90002AB0608D20853548E0624B46424639467F
:101EA0002046CDE9006500F0E1FE08B10120C6E75B
:101EB00031E02A463146204601F09CF850B1206CB2
:101EC000042805D12068006840F40070216808608B
:101ED0000120B4E7606A007821680861606A401CEC
:101EE0006062208D401E2085608D401E60852068C8
:101EF0004069C0F3800070B1208D60B1606A0078E5
:101F000021680861606A401C6062208D401E208547
:101F1000608D401E6085208D0028CAD12A4631463A
:101F2000204600F013FF00E01CE050B1206C0428B4
:101F300005D12068006840F4007021680860012025
:101F40007DE72068006840F4007021680860202068
:101F500084F83D00002084F83E0000BF84F83C0077
:101F600000BF6CE702206AE7020010000000FFFFDC
:101F700010B586B0044600200290039004900590AE
:101F800016492068884226D100BF1548806940F074
:101F90000800134988610846806900F00800019034
:101FA00000BF00BF4FF44060029012200390032056
:101FB000059002A90B48FFF733FA00BF0848C06933
:101FC00040F480000649C8610846C06900F48000FA
:101FD000019000BF00BF06B010BD000000580040D7
:101FE00000100240000C01400348006803490978D2
:101FF00008440149086070470000002008000020E4
:1020000010B50848006840F0100006490860032039
:1020100000F098F80F2000F007F800F02BF80020EF
:1020200010BD00000020024070B504460E48007844
:102030004FF47A71B1FBF0F00C490968B1FBF0F58F
:10204000284600F0E9FB08B1012070BD102C07D232
:1020500000222146501E00F037F80548046001E0D8
:102060000120F2E70020F0E7080000200C0000202B
:102070000400002008B500BF1148806940F001004D
:102080000F4988610846806900F00100009000BF98
:1020900000BF00BF0846C06940F08050C8610846D4
:1020A000C06900F08050009000BF00BF00BF05492C
:1020B000486820F0E06040F00070486000BF08BD54
:1020C00000100240000001402DE9F05F80460D46FF
:1020D0001646002702F018FD074639462A463346C1
:1020E00001F00700C0F1070ABAF1040F02D94FF05E
:1020F000040A01E0C0F1070AD14600F1040ABAF16E
:10210000070F02D24FF0000A01E0A0F1030AD44603
:102110004FF0010A0AFA09FAAAF1010A0AEA020AC8
:102120000AFA0CFA4FF0010B0BFA0CFBABF1010BA6
:102130000BEA030B4AEA0B042146404602F0ECFC92
:10214000BDE8F09F00BF00F00702064B19684FF68C
:10215000FF031940044B0B4343EA0221014B196072
:1021600000BF70470CED00E00000FA0570B50446B2
:102170000D460CB9012070BD5A48006800F00700F8
:10218000A8420ED25748006820F00700284355495E
:1021900008600846006800F00700A84201D001204E
:1021A000E9E7207800F0020002281DD1207800F035
:1021B0000400042805D14C48406840F4E0604A49D6
:1021C0004860207800F00800082805D1464840689B
:1021D00040F46050444948604348406820F0F000B3
:1021E000A168084340494860207800F0010078B3B6
:1021F0006068012806D13C48006800F4003090B9BE
:102200000120B8E76068022806D13748006800F06E
:10221000007040B90120AEE73348006800F00200CA
:1022200008B90120A7E73048406820F00300616842
:1022300008432D494860FFF789FA064609E0FFF791
:1022400085FA801B41F28831884202D9032092E747
:1022500007E02548406800F00C006168B0EB810F92
:10226000EDD12048006800F00700A8420ED91D48B3
:10227000006820F0070028431A49086008460068F3
:1022800000F00700A84201D0012074E7207800F098
:102290000400042807D11448406820F4E060E16895
:1022A000084311494860207800F00800082808D148
:1022B0000D48406820F46050216940EAC1000A4995
:1022C000486000F03FF808494968C1F30311074A24
:1022D000515CC8400649086006480068FFF7A4FE44
:1022E000002048E700200240001002403270000841
:1022F0000C00002004000020014800687047000026
:102300000C00002000B5FFF7F7FF04494968C1F34E
:102310000221034A515CC84000BD00000010024089
:102320004270000800B5FFF7E7FF04494968C1F3B0
:10233000C221034A515CC84000BD000000100240A9
:102340004270000870B50021002200240023002004
:10235000134D696801F00C05F5B1042D02D0082D6C
:1023600019D101E00F4819E00F4DC1F38346AB5D71
:1023700001F4803555B10A4D6D68C5F340450B4EEB
:10238000725D084D5D43B5FBF2F402E0084D03FBBE
:1023900005F4204602E000BF024800BF00BF70BD48
:1023A0000010024000127A0020700008307000080F
:1023B00000093D00F8B504460CB90120F8BD2078AD
:1023C00000F00100002878D0F848406800F00C00C8
:1023D00004280CD0F548406800F00C00082811D102
:1023E000F248406800F48030B0F5803F0AD1EF48F1
:1023F000006800F4003000285FD0606800285CD1DD
:102400000120DBE700BF6068B0F5803F06D1E748F8
:10241000006840F48030E549086028E0606858B9F9
:10242000E248006820F48030E0490860084600680F
:1024300020F4802008601AE06068B0F5A02F0BD16E
:10244000DA48006840F48020D849086008460068EF
:1024500040F4803008600AE0D448006820F48030FE
:10246000D24908600846006820F48020086000BF58
:10247000606888B1FFF76AF9054606E0FFF766F97C
:10248000401B642801D9032098E7C848006800F47D
:1024900000300028F2D010E0FFF758F9054606E0BA
:1024A000FFF754F9401B642801D9032086E7BF4891
:1024B000006800F400300028F2D1207800F002001B
:1024C000022857D1B948406800F00C0050B1B74815
:1024D000406800F00C00082818D1B448406800F4A7
:1024E000803098B9B148006800F0020020B120693E
:1024F000012801D0012061E7AC48006820F0F80015
:10250000616940EAC100A949086033E02069E8B187
:102510000120A7490860FFF719F9054606E0FFF713
:1025200015F9401B022801D9032047E79F4800689E
:1025300000F002000028F2D09C48006820F0F8006B
:10254000616940EAC1009949086013E00020984998
:102550000860FFF7FBF8054606E0FFF7F7F8401BB9
:10256000022801D9032029E79048006800F0020002
:102570000028F2D1207800F0080008282DD1A069A9
:10258000B8B101208B490860FFF7E0F8054606E086
:10259000FFF7DCF8401B022801D903200EE783482F
:1025A000406A00F002000028F2D0012002F03AF95F
:1025B00013E000207F490860FFF7C8F8054606E0F1
:1025C000FFF7C4F8401B022801D90320F6E677483C
:1025D000406A00F002000028F2D1207800F00400E8
:1025E000042873D100277148C06900F0805070B989
:1025F00000BF6E48C06940F080506C49C861084611
:10260000C06900F08050009000BF00BF01276A48F9
:10261000006800F48070B0B96748006840F48070CA
:1026200065490860FFF792F8054606E0FFF78EF867
:10263000401B642801D90320C0E65F48006800F40D
:1026400080700028F2D000BFE068012806D157480A
:10265000006A40F001005549086227E0E06858B977
:102660005248006A20F00100504908620846006A9A
:1026700020F00400086219E0E06805280BD14B48FF
:10268000006A40F00400494908620846006A40F0C8
:10269000010008620AE04548006A20F00100434951
:1026A00008620846006A20F00400086200BFE06883
:1026B000A0B1FFF74BF8054609E0FFF747F8401BCC
:1026C00041F28831884202D9032077E622E0374878
:1026D000006A00F002000028EFD012E0FFF736F8A1
:1026E000054608E0FFF732F8401B41F28831884286
:1026F00001D9032062E62D48006A00F0020000289C
:10270000F0D1012F05D12948C06920F08050274918
:10271000C86100BFE069C8B32448406800F00C00FD
:10272000082860D0E069022848D1002020490866C6
:10273000FFF70CF8054606E0FFF708F8401B0228F3
:1027400001D903203AE61948006800F0007000281B
:10275000F2D1206AB0F5803F07D11448406820F4D8
:102760000030A168084311494860D4E908010843D2
:102770000E49496821F4741108430C49486001204E
:102780000B490866FEF7E2FF054607E03DE0FEF76D
:10279000DDFF401B022801D903200FE60348006833
:1027A00000F000700028F2D02FE00000001002407E
:1027B0000000424280044242007000400020144960
:1027C0000866FEF7C3FF054606E0FEF7BFFF401BA5
:1027D000022801D90320F1E50E48006800F00070DE
:1027E0000028F2D111E0E069012800D1E6E50948AE
:1027F000466806F48031206A814204D106F47011E3
:10280000606A814201D00120D8E50020D6E50000B1
:10281000000042420010024070B504462546681E82
:10282000B0F1807F01D301200FE0681E4FF0E0215E
:1028300048610F214FF0FF3002F06EF900204FF099
:10284000E021886107200861002070BD10B50446B2
:102850000CB9012010BDA06900B100E000BF94F8E0
:10286000410028B9002084F84000204600F02AF8F2
:10287000242084F841002068C06820F400502168BA
:10288000C860204602F056F82068006920F49040A5
:10289000216808612068406920F02A0021684861A9
:1028A0002068C06840F400502168C860002060645F
:1028B000202084F8410084F842000020606300BFBB
:1028C000C8E7000010B586B00446002002900390CF
:1028D000049005901A49206888422ED100BF1948FB
:1028E000806940F48040174988610846806900F497
:1028F0008040019000BF00BF00BF0846806940F0E3
:10290000040088610846806900F00400019000BF5F
:1029100000BF48150290022003900320059002A9F1
:102920000948FEF77DFD4FF480600290002003907F
:10293000049002A90448FEF773FD06B010BD000024
:102940000038014000100240000801402DE9F84F16
:1029500004460E46174699464FF0000A94F8410087
:10296000202850D106B117B90120BDE8F88F00200A
:102970006064212084F84100FEF7E8FE8246A784C7
:10298000E784A068B0F5805F04D1206910B9002504
:10299000B04602E035464FF000081EE053460022E4
:1029A00080212046CDF8009002F042F820B120208E
:1029B00084F841000320D8E745B9B8F80000C0F317
:1029C00008002168486008F1020803E028782168BF
:1029D00048606D1CE08C401EE084E08C0028DDD156
:1029E0005346002240212046CDF8009002F020F806
:1029F00020B1202084F841000320B6E7202084F88D
:102A000041000020B1E70220AFE700BFFEE701462A
:102A100008684069C0F38020B0B16FF480600A6834
:102A2000506100200863202081F83D00002081F8DB
:102A30003E00086C40F00400086400BF002081F8EC
:102A40003C0000BF012070470020FCE72DE9F8435F
:102A500004460D4617469846E66A082E04D0012E15
:102A600002D016F5803F06D12068006840F48070DF
:102A70002168086008E0206B122805D120680068F2
:102A800040F48070216808603B4600224FF001113D
:102A90002046CDF8008000F08CF960B12068006815
:102AA00000F48070B0F5807F02D14FF40070206494
:102AB0000320BDE8F8832069B0F5804F04D105F00C
:102AC000FE002168086112E005F44070F02141EA3F
:102AD000E0102168086143463A460B49204600F061
:102AE000C7F908B10120E4E7E8B22168086143466C
:102AF0003A460549891F204600F0BAF908B101207D
:102B0000D7E70020D5E70000080001002DE9F843D1
:102B100004460F4615469946DDE908862068006898
:102B200040F48060216808602068006840F480708C
:102B300021680860434600224FF0011120460096AC
:102B400000F037F960B12068006800F48070B0F5DB
:102B5000807F02D14FF4007020640320BDE8F88329
:102B600007F0FE0021680861334642463E49204690
:102B700000F07EF908B10120F0E700BF00200090CE
:102B800020684069009020688069009000BF00BF05
:102B900032464146204600F02DFA50B1206C042800
:102BA00005D12068006840F40070216808600120A9
:102BB000D4E7B9F1010F03D1E8B22168086117E049
:102BC000C5F307202168086132464146204600F0DF
:102BD00011FA50B1206C042805D12068006840F437
:102BE0000070216808600120B8E7E8B22168086138
:102BF00032464146204600F0FDF950B1206C0428D1
:102C000005D12068006840F4007021680860012048
:102C1000A4E72068006840F480702168086043469B
:102C200000224FF001112046009600F0C2F858B182
:102C30002068006800F48070B0F5807F02D14FF406
:102C400000702064032089E7F8B240F00100216899
:102C50000861334642460449204600F009F908B1AC
:102C600001207BE7002079E7020001002DE9F8430D
:102C70000446884615469946DDE9086720680068DD
:102C800040F4807021680860334600224FF0011143
:102C90002046009700F08DF860B12068006800F4CD
:102CA0008070B0F5807F02D14FF400702064032063
:102CB000BDE8F88308F0FE00216808613B46324613
:102CC0002149204600F0D4F808B10120F0E700BF08
:102CD0000020009020684069009020688069009082
:102CE00000BF00BF3A463146204600F083F950B19C
:102CF000206C042805D12068006840F40070216829
:102D000008600120D4E7B9F1010F03D1E8B22168CE
:102D1000086117E0C5F30720216808613A4631468B
:102D2000204600F067F950B1206C042805D12068D6
:102D3000006840F40070216808600120B8E7E8B23C
:102D4000216808610020B3E70200010070B5044665
:102D50000D46164625E02046FFF759FE08B1012032
:102D600070BD681CE8B1FEF7F1FC801BA84200D8DA
:102D7000BDB920684069C0F3800090B9002020638D
:102D8000202084F83D00002084F83E00206C40F0B4
:102D90002000206400BF002084F83C0000BF012018
:102DA000DEE720684069C0F380000028D3D000200F
:102DB000D6E72DE9F04104460D4617461E46DDF8DC
:102DC000188038E0701CA8B3FEF7C0FCA0EB080028
:102DD000B04200D876BBC5F3074001280AD120686D
:102DE0004069A9B20840A9B2884201D101200BE094
:102DF000002009E020688069A9B20840A9B2884291
:102E000001D1012000E00020B84214D1002020634D
:102E1000202084F83D00002084F83E00206C40F023
:102E20002000206400BF002084F83C0000BF012087
:102E3000BDE8F081FFE7C5F3074001280AD120680B
:102E40004069A9B20840A9B2884201D101200BE033
:102E5000002009E020688069A9B20840A9B2884230
:102E600001D1012000E00020B842ABD00020DFE714
:102E70002DE9F04104460D4616461F4658E02068ED
:102E80004069C0F38020E8B12068006840F4007019
:102E9000216808606FF48060216848610020206329
:102EA000202084F83D00002084F83E00206C40F093
:102EB0000400206400BF002084F83C0000BF012013
:102EC000BDE8F081701C90B3FEF740FCC01BB0421F
:102ED00000D866BBC5F3074001280AD120684069C5
:102EE000A9B20840A9B2884201D101200BE000201C
:102EF00009E020688069A9B20840A9B2884201D1DE
:102F0000012000E0002090B900202063202084F8F8
:102F10003D00002084F83E00206C40F0200020643A
:102F200000BF002084F83C0000BF0120C8E7FFE795
:102F3000C5F3074001280AD120684069A9B20840BA
:102F4000A9B2884201D101200BE0002009E02068ED
:102F50008069A9B20840A9B2884201D1012000E0ED
:102F6000002000288BD00020AAE770B504460D464B
:102F7000164637E020684069C0F30010A0B16FF03A
:102F800010002168486100202063202084F83D0063
:102F9000002084F83E00206C206400BF002084F8EC
:102FA0003C0000BF012070BDFEF7D0FB801BA84293
:102FB00000D8BDB920684069C0F3801090B90020E6
:102FC0002063202084F83D00002084F83E00206C1F
:102FD00040F02000206400BF002084F83C0000BFC7
:102FE0000120E0E720684069C0F380100028C1D0CC
:102FF0000020D8E770B504460D46164625E0204669
:10300000FFF705FD08B1012070BD681CE8B1FEF7AF
:103010009DFB801BA84200D8BDB920684069C0F361
:10302000C01090B900202063202084F83D000020CB
:1030300084F83E00206C40F02000206400BF002097
:1030400084F83C0000BF0120DEE720684069C0F33F
:10305000C0100028D3D00020D6E7000070B50024AF
:103060000CE0002506E00020074901EBC5010855EA
:10307000681CC5B2802DF6DB601CC4B2082CF0DBE6
:1030800000F0B8F870BD000004030020F0B514464D
:103090000B46CF1701EB5777C7F3C702CF1701EBEA
:1030A0005777FF10A1EBC707FEB20123B340DDB293
:1030B0004CB1134B03EBC0039B5C2B43104F07EB4E
:1030C000C007BB541AE00E4B03EBC0039B5CDB4311
:1030D0000B4F07EBC007BB54094B03EBC0039B5CD2
:1030E0002B43074F07EBC007BB54054B03EBC00353
:1030F0009B5CDB43024F07EBC007BB54F0BD0000F5
:103100000403002010B54FF44870FEF775F9002154
:10311000AE2000F0BBF90021084600F0B7F900210D
:10312000102000F0B3F90021402000F0AFF9002199
:10313000812000F0ABF90021CF2000F0A7F9002199
:10314000A12000F0A3F90021C82000F09FF9002180
:10315000A62000F09BF90021A82000F097F900219B
:103160003F2000F093F90021D32000F08FF90021D7
:10317000084600F08BF90021D52000F087F90021E6
:10318000802000F083F90021D92000F07FF9002190
:10319000F12000F07BF90021DA2000F077F900211E
:1031A000122000F073F90021DB2000F06FF90021FC
:1031B000402000F06BF90021202000F067F9002189
:1031C000022000F063F900218D2000F05FF900215A
:1031D000142000F05BF90021A42000F057F9002131
:1031E000A62000F053F9FFF739FF0021AF2000F0CF
:1031F0004DF910BD70B500241CE004F1B001C8B257
:10320000002100F043F90021084600F03FF90021B9
:10321000102000F03BF9002508E0084901EBC5014A
:10322000085D012100F032F9681CC5B2802DF4DB85
:10323000601CC4B2082CE0DB70BD00000403002059
:103240002DE9FE4F0746884692461C460197CDF869
:103250000080082C02D14FF006091FE02046E3173A
:1032600004EB5373DB1021464FEAE47C04EB5C7CF7
:103270004FEAEC0CA4EBCC0CBCF1000F02D04FF0E9
:10328000010C01E04FF0000C6344224604EBD27CB9
:103290004FEA6C0C03FB0CF303F0FF09AAF12000CA
:1032A000C6B200255EE0082C07D106EB46002F4988
:1032B00001EB400010F805B01DE00C2C07D106EB27
:1032C00046002B4901EB800010F805B013E0102CEC
:1032D00005D1284800EB061010F805B00BE0182CBB
:1032E00007D106EBC600244901EB800010F805B0B9
:1032F00001E0BDE8FE8F002002901CE00BF0010011
:1033000028B1414638460C9AFFF7C0FE09E00C98F8
:1033100008B9012000E00020024641463846FFF788
:10332000B5FE4FEA6B0B08F1010000F0FF080298B0
:10333000401CC0B2029002980828DFDB781CC7B29C
:10334000082C0BD004EBD4714A100199791A8A42E7
:1033500004D1019F00980830C0B20090DDF80080D1
:10336000681CC5B24D459EDB00BFC2E74A7000082D
:1033700072720008E6760008D67C00082DE9FC4F42
:1033800005460F4690461C46A946BA462046E21717
:1033900004EB5272D2102146E31704EB5373DB1097
:1033A000A4EBC3030BB1012300E000231A446243E2
:1033B0001FFA82FB00263AE0102C05D11E4800EBD4
:1033C0004810805D009001E0BDE8FC8F0020019076
:1033D0001CE0009800F0010028B1394628460B9AFD
:1033E000FFF754FE09E00B9808B9012000E0002027
:1033F000024639462846FFF749FE009840100090E3
:10340000781CC7B20198401CC0B2019001980828EE
:10341000DFDB681CC5B2A5EB0900A04204D14D4614
:103420000AF1080000F0FF0A5746701C86B25E459C
:10343000C2DB00BFC8E70000328A00082DE9F84F60
:103440000546884616461C46DDF828903046FCF7AF
:10345000D9FE1FFA80FA002714E0CDF80090F25D43
:10346000234641462846FFF7EBFE082C02D1A81D53
:10347000C5B205E0204604EBD07105EB6101CDB289
:10348000781C87B25745E8DBBDE8F88F7CB5044669
:103490000D460DB9002000E040208DF804008DF8A5
:1034A00005406420022301AA782100900148FEF71C
:1034B0003BFA7CBD9C01002070B50446012C07D16D
:1034C0002548407920F00100401C2349487105E05F
:1034D0002148407920F001001F4948712F211FA089
:1034E000FCF7A5FE28B12F211CA0FCF7A0FE401C74
:1034F00000E01AA006465C21FCF799FE88B12F2156
:1035000016A0FCF794FE28B12F2114A0FCF78FFE23
:10351000401C00E011A006465C21FCF788FE401C20
:103520000BE02F210DA0FCF782FE28B12F210BA06C
:10353000FCF77DFE401C00E008A0054606484379E4
:103540004FF4DF7229460AA001F0BAFA0248417925
:10355000052001F043F870BD4C0200202E2E5C497E
:103560006E745C496E745F42513736392E630000C9
:103570005B25733A25645D4348473A253032780A23
:103580000000000070B50446012C07D125484079A1
:1035900020F00200801C2349487105E02148407951
:1035A00020F002001F4948712F211FA0FCF73FFEA9
:1035B00028B12F211CA0FCF73AFE401C00E01AA005
:1035C00006465C21FCF733FE88B12F2116A0FCF7DC
:1035D0002EFE28B12F2114A0FCF729FE401C00E08C
:1035E00011A006465C21FCF722FE401C0BE02F21B7
:1035F0000DA0FCF71CFE28B12F210BA0FCF717FE35
:10360000401C00E008A005460648437940F2D1126C
:1036100029460AA001F054FA02484179052000F039
:10362000DDFF70BD4C0200202E2E5C496E745C499B
:103630006E745F42513736392E6300005B25733A52
:1036400025645D4453473A253032780A0000000073
:103650002DE9F04F89B004460E46052C38DB2F21AA
:103660003CA0FCF7E4FD28B12F213AA0FCF7DFFDD8
:10367000401C00E037A080465C21FCF7D8FD88B1F3
:103680002F2134A0FCF7D3FD28B12F2131A0FCF766
:10369000CEFD401C00E02FA080465C21FCF7C7FD5A
:1036A000401C0BE02F212BA0FCF7C1FD28B12F21DE
:1036B00028A0FCF7BCFD401C00E026A007464FF404
:1036C0008972394628A001F0FBF909B0BDE8F08FF6
:1036D00060000C3000F0FF0960000D3000F0FF0AC0
:1036E000002007900690012207A9484600F01EFF1F
:1036F0008346012206A9504600F018FF0546BBF19B
:10370000000F25D125BB1F4890F90000FCF7EAFF08
:1037100002909DF818109DF81C2041EA0220FCF749
:10372000E1FF0090184801680098FCF7E3FD019064
:103730000299FCF787FD0390FDF728F80022134B50
:10374000CDE90401FCF75FFF0746FDF732F8306072
:1037500000BFBAE72E2E5C496E745C496E745F42FE
:10376000513736392E6300005B25733A25645D635B
:10377000656C6C5F696E646578206572726F72212A
:1037800021210A00400000203C00002000408F4022
:103790002DE9F04F85B0814600200490039001226E
:1037A00004A9322000F0C2FE8346012203A933207F
:1037B00000F0BCFE0290BBF1000F02D1029800287D
:1037C00038D02F2150A0FCF732FD28B12F214EA078
:1037D000FCF72DFD401C00E04BA006465C21FCF7E9
:1037E00026FD88B12F2148A0FCF721FD28B12F210B
:1037F00045A0FCF71CFD401C00E043A006465C21F0
:10380000FCF715FD401C0BE02F213FA0FCF70FFD3E
:1038100028B12F213CA0FCF70AFD401C00E03AA093
:10382000054640F2311229463CA001F049F905B0A5
:10383000BDE8F08F9DF80C009DF8101040EA0120C3
:1038400004B2B4F5FA4F02DC14F5FA4F36DA2F2140
:103850002DA0FCF7ECFC28B12F212BA0FCF7E7FCF6
:10386000401C00E028A006465C21FCF7E0FC88B183
:103870002F2125A0FCF7DBFC28B12F2122A0FCF78B
:10388000D6FC401C00E020A006465C21FCF7CFFCE3
:10389000401C0BE02F211CA0FCF7C9FC28B12F21F4
:1038A00019A0FCF7C4FC401C00E017A0054640F23C
:1038B0003B12294620A001F003F9B8E7002C01DAF9
:1038C000604204B22046FCF716FF0746204A214B0F
:1038D000FCF727FE0546FCF76CFF82465046FCF7D6
:1038E00055FF054600221C4BFCF78DFE00221B4BAA
:1038F000CDE90001FCF787FE0746FCF75AFFC9F83F
:10390000000000BF93E700002E2E5C496E745C49F6
:103910006E745F42513736392E6300005B25733A6F
:1039200025645D47657443757272656E74206572B7
:10393000726F722121210A005B25733A25645D6351
:10394000635F616463206572726F720A0A0000002F
:10395000E17A14AE47E120400000144000408F405F
:103960001CB50446002001900090012201A95020BE
:1039700000F0DCFD01226946592000F0D7FD9DF8DA
:103980000400182101EA40009DF8001040EA61108F
:1039900000F26D1020801CBD38B504460020009058
:1039A00001226946512000F0C1FD9DF8000040B29F
:1039B000207038BD2DE9F04F87B0044600200690F6
:1039C0000590012206A92A2000F0B0FD82460122BE
:1039D00005A92B2000F0AAFD0490BAF1000F02D136
:1039E0000498002838D02F2133A0FCF720FC28B100
:1039F0002F2131A0FCF71BFC401C00E02EA0064646
:103A00005C21FCF714FC88B12F212BA0FCF70FFCE4
:103A100028B12F2128A0FCF70AFC401C00E026A0BA
:103A200006465C21FCF703FC401C0BE02F2122A082
:103A3000FCF7FDFB28B12F211FA0FCF7F8FB401C71
:103A400000E01DA0054640F25B1229461FA001F0D0
:103A500037F807B0BDE8F08F9DF814009DF81810F6
:103A600040EA01200FFA80F9204991F9001001EB9A
:103A70008100FCF737FE02904846FCF733FE0190C8
:103A80001B4801684FF08140FCF734FC009001991D
:103A9000FCF730FC83460299FCF7D4FB0390FCF75B
:103AA00075FE07460022134BFCF7ADFD0546FCF7FB
:103AB00080FE206000BFCCE72E2E5C496E745C490E
:103AC0006E745F42513736392E6300005B25733ABE
:103AD00025645D4765745061636B566F6C746167F4
:103AE00065206572726F722121210A00400000205A
:103AF0003C00002000408F402DE9F04F8BB0054680
:103B00000C4616460020089009908146002715E0D3
:103B100055F827005E49FCF7EDFB8346FCF709FEEC
:103B20001FFA80F8404600F0E3F808A9C85508A835
:103B3000C05D48441FFA80F9781CC7B2052FE7DB47
:103B40002F2154A0FCF773FB28B12F2151A0FCF7C3
:103B50006EFB401C00E04FA080465C21FCF767FB39
:103B600088B12F214BA0FCF762FB28B12F2149A07F
:103B7000FCF75DFB401C00E046A080465C21FCF7A2
:103B800056FB401C0BE02F2142A0FCF750FB28B154
:103B90002F2140A0FCF74BFB401C00E03DA0074656
:103BA0009DF824009DF823109DF822209DF82130D7
:103BB000CDE90032CDE902109DF8203040F29D128F
:103BC000394639A000F07CFF4846FCF7A5FD0022ED
:103BD0003D4BCDE90401FCF7A4FC074600223B4B1A
:103BE000FCF711FDCDE90601FCF7E3FD82463849FB
:103BF0003046FCF7FBFD21D836493046FCF774FB14
:103C00008346FCF7C3FD344A344BCDE90001FCF791
:103C100088FC074600222C4BFCF780FCCDE9040110
:103C20005046FCF7B3FDCDE90201DDE90423FCF7C2
:103C300078FCCDE90601FCF7BCFD20602449304644
:103C4000FCF7DEFD21D222493046FCF74DFB8346CE
:103C5000FCF79CFD224A234BCDE90001FCF761FCF7
:103C6000214A224BCDE90201FCF758FCCDE90401C1
:103C70005046FCF78BFD0746DDE90423FCF751FCB9
:103C8000CDE90601FCF795FD20600BB0BDE8F08F93
:103C900000007A442E2E5C496E745C496E745F425B
:103CA000513736392E6300005B25733A25645D6910
:103CB0006E6465783A256420256420256420256497
:103CC0002025640A000000000000F03F00001440BE
:103CD000000020420000C8417B14AE47E17A743FE7
:103CE000FCA9F1D24D62803F9A9999999999E93F3F
:103CF000014600220B480088884201DD0020704701
:103D00000848B0F8C800884201DA6420F7E701E00B
:103D1000501CC2B2034830F812008842F8DD104649
:103D2000EDE70000420000202DE9F04F8BB0054682
:103D300000200A90099001220AA92C2000F0F6FB2D
:103D40008346012209A92D2000F0F0FB0890BBF169
:103D5000000F02D10898002838D02F214FA0FCF77F
:103D600066FA28B12F214DA0FCF761FA401C00E053
:103D70004AA080465C21FCF75AFA88B12F2147A05F
:103D8000FCF755FA28B12F2144A0FCF750FA401C4B
:103D900000E042A080465C21FCF749FA401C0BE0A1
:103DA0002F213EA0FCF743FA28B12F213BA0FCF7BE
:103DB0003EFA401C00E039A007464FF4BA7239467B
:103DC0003BA000F07DFE0BB0BDE8F08F9DF8280011
:103DD00000F03F009DF8241041EA00264FF4BF7127
:103DE00006FB01F0FCF787FC0022394BCDE9060108
:103DF000FCF709FC0746FCF7DCFC81464846FCF76B
:103E0000C5FC07460022334BFCF788FBCDE90401D3
:103E10004846FCF7BBFC074600222F4BFCF781FB12
:103E2000CDE90201DDE90423FCF7EDFBCDE9060154
:103E3000FCF7BFFC82465046FCF7A8FC0746002270
:103E4000254BFCF7E0FBCDE9000101F0C9FE234A58
:103E5000234BCDE90201FCF764FB224A224BCDE95A
:103E60000401FCF7B7FACDE90601FCF7A2FC044611
:103E700021464FF07E50FCF76FFA0590FCF786FC68
:103E800007464FF06632194BFCF745FBCDE90601BA
:103E9000FCF78FFC286000BF95E700002E2E5C49E0
:103EA0006E745C496E745F42513736392E63000080
:103EB0005B25733A25645D47657454656D70657262
:103EC0006174757265206572726F722121210A001A
:103ED00000408F4000C8A9400088C34081D91E7EA1
:103EE0006597303F83DBB5DCE1796B3F661271404B
:103EF0002DE9F84F0021042000F070FB012104207F
:103F000000F06CFB0221042000F068FB4FF47A7093
:103F1000FDF772FA00F04CFBFE48FFF721FDFD486B
:103F20000088FCF7F9FB06460022FB4BFCF76BFB15
:103F30000446FCF73EFCF9490860F948FFF72CFD00
:103F40002F21F8A0FCF773F928B12F21F5A0FCF779
:103F50006EF9401C00E0F3A005465C21FCF767F910
:103F600088B12F21EFA0FCF762F928B12F21EDA035
:103F7000FCF75DF9401C00E0EAA005465C21FCF777
:103F800056F9401C0BE02F21E6A0FCF750F928B1B0
:103F90002F21E4A0FCF74BF9401C00E0E1A004460F
:103FA000DF4890F900000090DA480388D4222146C7
:103FB000E1A000F085FD1820E74908714220487112
:103FC00008460179042000F009FBE3484179052007
:103FD00000F004FB2F21D3A0FCF729F928B12F21F1
:103FE000D0A0FCF724F9401C00E0CEA005465C21DF
:103FF000FCF71DF988B12F21CAA0FCF718F928B1E8
:104000002F21C8A0FCF713F9401C00E0C5A005460D
:104010005C21FCF70CF9401C0BE02F21C1A0FCF740
:1040200006F928B12F21BFA0FCF701F9401C00E0E0
:10403000BCA00446C84840790090C7480379DC22F8
:104040002146C6A000F03CFDC348807920F08000E6
:10405000C14988710846807920F0180018308871AD
:104060000846807920F00700C01D887108468179D4
:10407000062000F0B3FA2F21AAA0FCF7D8F828B147
:104080002F21A8A0FCF7D3F8401C00E0A5A005460E
:104090005C21FCF7CCF888B12F21A2A0FCF7C7F86F
:1040A00028B12F219FA0FCF7C2F8401C00E09DA082
:1040B00005465C21FCF7BBF8401C0BE02F2199A0C2
:1040C000FCF7B5F828B12F2196A0FCF7B0F8401CFA
:1040D00000E094A00446A0488379E3222146AAA0E8
:1040E00000F0EEFC9C48C07920F0700010309A4936
:1040F000C8710846C07920F00F000F30C87108461B
:10410000C179072000F06AFA2F2186A0FCF78FF80A
:1041100028B12F2183A0FCF78AF8401C00E081A081
:1041200005465C21FCF783F888B12F217DA0FCF7C0
:104130007EF828B12F217BA0FCF779F8401C00E025
:1041400078A005465C21FCF772F8401C0BE02F219B
:1041500074A0FCF76CF828B12F2172A0FCF767F867
:10416000401C00E06FA004467B48C379E82221464A
:104170008CA000F0A5FC7848007A20F0C000403008
:10418000754908720846007A20F030001030087235
:104190000846017A082000F021FA2F2161A0FCF7DF
:1041A00046F828B12F215FA0FCF741F8401C00E041
:1041B0005CA005465C21FCF73AF888B12F2159A094
:1041C000FCF735F828B12F2156A0FCF730F8401C39
:1041D00000E054A005465C21FCF729F8401C0BE0E8
:1041E0002F2150A0FCF723F828B12F214DA0FCF778
:1041F0001EF8401C00E04BA004465748037AED220D
:1042000021466FA000F05CFC44480068FCF7BEFA51
:1042100006460F46424890F90000FCF76CFA8246C9
:1042200000226E4BFCF77AF9804632463B46FCF79B
:10423000EAF90446FCF791FAC0F3071046494872C0
:104240000846417A092000F0C9F92F2135A0FBF773
:10425000EEFF28B12F2133A0FBF7E9FF401C00E05F
:1042600030A005465C21FBF7E2FF88B12F212DA08D
:10427000FBF7DDFF28B12F212AA0FBF7D8FF401C58
:1042800000E028A005465C21FBF7D1FF401C0BE0B5
:104290002F2124A0FBF7CBFF28B12F2121A0FBF772
:1042A000C6FF401C00E01FA004462B48437AF622BC
:1042B00021464BA000F004FC18480068FCF766FAA1
:1042C00080468946164890F90000FCF714FA064625
:1042D0000022494BFCF722F9044642464B46FCF7C4
:1042E00092F98246FCF739FAC0F307101A4988722E
:1042F0000846817A0A2000F071F92F2109A0FBF706
:1043000096FF28B12F2107A0FBF791FF401C77E013
:1043100074E000003800002000408F403C00002086
:10432000400000202E2E5C496E745C496E745F4222
:10433000513736392E6300005B25733A25645D677B
:1043400061696E3A2564A6CC562C6F6666736574F7
:104350003A25646D560A00004C0200205B25733A32
:1043600025645D42515F5359535F4354524C313A77
:10437000253032582C42515F5359535F4354524CAD
:10438000323A253032580A005B25733A25645D4283
:10439000515F50524F54454354313A253032580AF8
:1043A000000000005B25733A25645D42515F505266
:1043B0004F54454354323A253032580A0000000029
:1043C0005B25733A25645D42515F50524F5445431B
:1043D00054333A253032580A00000000009AB040A9
:1043E0005B25733A25645D42515F4F565F545249D5
:1043F000503A253032580A0000E0A540AFF2DC0008
:1044000005465C21FBF713FFA0B12F21AFF2EC00B2
:10441000FBF70DFF30B12F21AFF2F800FBF707FFDC
:10442000401C01E0AFF2041005465C21FBF7FFFEE3
:10443000401C0EE02F21AFF21410FBF7F8FE30B154
:104440002F21AFF22010FBF7F2FE401C01E0AFF28B
:104450002C1004462848837AFF22214627A000F02A
:104460002FFB19202449C8720846C17A0B2000F09E
:10447000B5F82F21AFF25410FBF7D9FE30B12F2140
:10448000AFF26010FBF7D3FE401C01E0AFF26C10FE
:1044900005465C21FBF7CBFEA0B12F21AFF27C10CB
:1044A000FBF7C5FE30B12F21AFF28810FBF7BFFE3E
:1044B000401C01E0AFF2941005465C21FBF7B7FE0B
:1044C000401C0EE02F21AFF2A410FBF7B0FE30B17C
:1044D0002F21AFF2B010FBF7AAFE401C01E0AFF2B3
:1044E000BC1004460448C37A4FF48272214609A0E6
:1044F00000F0E6FABDE8F88F4C0200205B25733A25
:1045000025645D42515F55565F545249503A2530FB
:1045100032580A005B25733A25645D42515F43437C
:104520005F4346473A253032580A00002DE9FF41E3
:1045300005460E46144680211B48FBF758FE02F044
:104540003BFA4FF0FF316004000C174A0123CDE91C
:10455000002002912A4611211448FDF79DFA02F02D
:104560003DFA0020039011208DF80C000E480078D1
:104570008DF80D00022103A8FCF788FC07460A48C5
:104580004078B84203D0012004B0BDE8F08100209B
:1045900005E0054A12F810103154411C88B2A042BF
:1045A000F7DB0020F0E70000840200209C010020DF
:1045B00010B50122D1030848FDF7C2F80A20FCF724
:1045C0001BFF00224FF400410348FDF7B9F84FF4F8
:1045D0007A70FCF711FF10BD0008014070B586B07D
:1045E00004460D460020059010208DF81400E0B21E
:1045F0008DF815008DF81650032105A8FCF746FC30
:104600000646002004908DF810508DF8116002F0DD
:10461000D3F94FF0FF30022104AA0123CDE9002194
:104620000290224610210348FDF7F0FB02F0D6F974
:1046300006B070BD9C01002000B58BB00120099030
:10464000002006900590019002900390049007903E
:104650000120089001A90448FCF73CFC0248FCF743
:104660009BFE0BB000BD000074010020F0B587B0C8
:1046700005460E4600210E48FCF7B1FC0746377090
:10468000002410E005EB0410031D6A4600210848D1
:10469000FCF7B9FC05EB04110098086005EB041168
:1046A00004980873641CBC42ECD307B0F0BD000052
:1046B0007401002010B50F480F490860242048609D
:1046C00000210D488160C1604FF4A02101614FF4C9
:1046D000001141610021017601214176817600219E
:1046E000C17601774177FCF758FD08B1FCF7EFFB85
:1046F00010BD0000006400407401002000B585B0CA
:104700000020019002900390049000BF244880692B
:1047100040F01000224988610846806900F01000CE
:10472000009000BF00BF00BF0846806940F0200035
:1047300088610846806900F02000009000BF00BF3B
:1047400000BF0846806940F008008861084680691B
:1047500000F00800009000BF00BF00BF084680695D
:1047600040F0040088610846806900F00400009071
:1047700000BF00BF00224FF400410A48FCF7E0FFF1
:104780004FF400400190012002900020039002208D
:10479000049001A90348FCF743FE05B000BD0000EA
:1047A000001002400008014010B50B480B4908609A
:1047B0000B484860002109488160C1604FF4804186
:1047C0000161002141618161C1610162FCF7C4FFA7
:1047D00008B1FCF77CFB10BD005800409C01002094
:1047E000A086010010B50B480B4908604FF4E1307A
:1047F0004860002108488160C16001610C2141616D
:1048000000218161C161FEF721F808B1FCF75FFB6F
:1048100010BD000000380140F001002000BFFEE79D
:1048200000BFFEE708B508490968C9084FF47A7265
:10483000B1FBF2F14143009100BF00BF00994A1E55
:1048400000920029F9D108BD0C00002010B5FDF739
:10485000CBFB02F05FFA012801D002F00DFA10BD87
:1048600000B58FB0282105A8FBF7C1FC14216846CC
:10487000FBF7BDFC01200590000406900020079086
:104880000120099002200C90C1030D914FF4E0111A
:104890000E9105A8FDF78EFD08B1FCF718FB0F205F
:1048A000009002200190002002904FF4806003905D
:1048B0000020049002216846FDF758FC08B1FCF77F
:1048C00006FB0FB000BD704700BF00BF02680C328E
:1048D00052E8002F22F4907102680C3242E8001373
:1048E000002BF3D100BF00BF00BF0268143252E8B2
:1048F000002F22F001010268143242E80013002B5D
:10490000F3D100BF016B01290ED100BF00BF0268C7
:104910000C3252E8002F22F0100102680C3242E8FB
:104920000013002BF3D100BF202180F8421000219A
:104930000163704770B504462168096921F440514C
:10494000E2681143226811612269A168114362691A
:1049500041EA02052168C96841F20C62914329438A
:104960002268D1602168496921F44071A26911432C
:10497000226851612D4A2168914202D1FDF7D2FC93
:1049800001E0FDF7BFFC00EBC00101EB0011626824
:104990009200B1FBF2F100EBC00202EB001263687F
:1049A0009B00B2FBF3F26423B2FBF3F202EBC2030F
:1049B00003EB0212A1EB8201322202EB011164220D
:1049C000B1FBF2F101F0F00100EBC00202EB0012CA
:1049D00063689B00B2FBF3F26423B2FBF3F201EBDA
:1049E000021200EBC00101EB001163689B00B1FBF8
:1049F000F3F100EBC00303EB00136668B600B3FBF2
:104A0000F6F36426B3FBF6F303EBC30606EB0313DE
:104A1000A1EB8301322303EB01116423B1FBF3F11A
:104A200001F00F0111442268916070BD003801400F
:104A30002DE9F84304460D4617469846089E31E096
:104A4000701C70B3FCF782FEA0EB0800B04200D8E7
:104A500016B90320BDE8F8832068C06800F00400A0
:104A6000F8B1802D1ED0402D1CD020680068C0F306
:104A7000C000B0B100BF0020009020680068009026
:104A800020684068009000BF00BF2046FFF71CFF71
:104A90000820606400BF002084F8400000BF0120AF
:104AA000D8E7FFE7206800682840A84201D101202C
:104AB00000E00020B842C3D00020CBE700BFFEE7F3
:104AC0000FB4054B10B503A9044A029800F076F91B
:104AD00010BC5DF814FB0000C55B00086C010020F1
:104AE0000FB4084B10B504A902AA039800F066F9A8
:104AF000044602A9002000F0E4FC204610BC5DF84A
:104B000014FB0000C354000802480068C0F30220F0
:104B1000704700000CED00E010B5002804DB0A0728
:104B2000130E054A135406E00A07140E034A00F058
:104B30000F031B1FD45410BD00E400E018ED00E08B
:104B40002DE9F0414F1E00EBC7010446D1E90001F9
:104B500015461E4637F006020DD02A463346FBF7AF
:104B6000E0FC7F1E04EBC703D3E90023FBF732FC14
:104B700037F00602F1D1022F25D0042F13D0062FD3
:104B800018BFBDE8F0812A463346FBF7CAFCD4E9DA
:104B90000A23FBF71FFC2A463346FBF7C2FCD4E985
:104BA0000823FBF717FC2A463346FBF7BAFCD4E987
:104BB0000623FBF70FFC2A463346FBF7B2FCD4E989
:104BC0000423FBF707FC2A463346FBF7AAFCD4E98B
:104BD0000223FBF7FFFB2A463346FBF7A2FCD4E98E
:104BE0000023BDE8F041FBF7F5BB000000221346AF
:104BF00010460149FBF707BD0000F03F0122FBF71B
:104C000005BF0022134610461146FBF7FCBC02E02C
:104C100008C8121F08C1002AFAD170477047002047
:104C200001E001C1121F002AFBD170470149086051
:104C300070470000700100202DE9FF5F82B0002165
:104C4000DDE90430020DDDF840B0034318D044F62E
:104C50001050A2F2FF3242431514119801281FD0C0
:104C6000A5EB0B00401C5FEA000A4FF000064E4F18
:104C7000DFF83891B046504615D5CAF1000413E06C
:104C8000119801244AA3012801D16FEA0B0102986F
:104C9000119AC0E90031C0E9024206B0BDE8F09FB8
:104CA000CBF10000DFE704460021404A491842EBFF
:104CB0000450CDE9001012E0E00707D032463B4631
:104CC00040464946FBF72DFC8046894632463B4626
:104CD00010461946FBF725FC06460F466410002CCB
:104CE000EAD1DDE90401DDE90023BAF1000F06DABB
:104CF000FBF717FC42464B46FBF713FC05E0FBF7BE
:104D000082FC42464B46FBF77EFC04460E460022E0
:104D1000284BFBF7C3FE03D84FF0FF30014607E0F6
:104D20000022254B20463146FBF754FBFBF785FE5E
:104D3000102409E0002C0ADB0A220023FBF780FD87
:104D4000039B30321A55641E50EA0102F2D1641CF2
:104D5000039AC4F111031444119A012A03D00122C9
:104D600008430DD10AE0084304D000204FF0110B96
:104D7000119072E7A3EB0B056D1E0DE05B4504DDA2
:104D80004FF0000205F1010504E003DA4FF00002E4
:104D9000A5F10105002AECD002981199C0E9023171
:104DA000C0E9004579E70000000014400000F03F32
:104DB000300000000000F0430000E03F2DE9FF4F0D
:104DC00095B09A46884606460025EEE1252877D11B
:104DD00000242746F94A0121039400E0044316F811
:104DE000013F203B01FA03F01042F7D130782A2826
:104DF00011D06FF02F033078A0F13002092A16D8B5
:104E0000039A44F0020402EB820203EB42021044D4
:104E1000761C0390EFE758F8042B0392002A03DA7C
:104E2000504244F40054039044F00204761C30785D
:104E30002E2816D116F8010F44F004042A280DD0AC
:104E40006FF02F023078A0F13003092B09D807EB5F
:104E5000870302EB4303C718761CF3E758F8047B7B
:104E6000761C30786C280FD006DC4C2817D06828C8
:104E70000DD06A2814D104E0742810D07A280FD1FC
:104E80000DE044F400140AE044F4801401E044F41A
:104E900040147278824202D104F58014761C761C8C
:104EA000307866280BD013DC582877D009DC00282E
:104EB00075D04528F6D04628F4D047281AD193E17A
:104EC00018E0632835D0642879D0652812D18BE1A9
:104ED000702873D008DC6728F1D069286FD06E285D
:104EE0000DD06F2806D1ACE073282CD0752874D073
:104EF000782853D05246179990476D1C54E1C4F35B
:104F00000250022809D003280DD0D8F80010042838
:104F10000DD00D6008F1040846E1D8F80010EA173A
:104F2000C1E90052F6E7D8F800100D80F2E70D70E5
:104F3000F0E718F8041B8DF8001000208DF8010030
:104F4000EB46012003E058F804BB4FF0FF30610747
:104F50004FF0000102D40DE009F101018946B94288
:104F60000FDA8145F8DB1BF809100029F4D108E0BD
:104F700009F1010189468142FADB1BF80910002979
:104F8000F6D103985346A0EB090721463846179AF5
:104F900000F080FA284400EB090507E044E008E14E
:104FA0000DE01BF8010B524617999047B9F1010922
:104FB000F7D2534621463846179AF2E039E00A21E3
:104FC000C4F302524FF0000B0091022A06D058F8A9
:104FD000040BC117032A09D00AE023E008F10700F7
:104FE00020F00702F2E80201904605E000B2C11786
:104FF000042A01D140B2C117002906DA0A4600216D
:10500000404261EB02012D2202E0220504D52B2251
:105010008DF80420012203E0E20701D02022F7E707
:10502000914657E00A2100E010214FF0000B00915B
:105030000BE010214FF0000B44F00404082700910E
:1050400003E008204FF0000B0090C4F30252022A44
:1050500005D058F8040B0021032A08D008E008F115
:10506000070020F00702F2E80201904603E080B258
:10507000042A00D1C0B24FF0000922072AD53278A5
:10508000702A07D0DDF800C08CF0100C5CEA0B0C25
:1050900005D00EE040228DF80420012208E050EAFD
:1050A000010306D030238DF804308DF8052002224C
:1050B0009146009B83F0080353EA0B030AD150EAA0
:1050C000010201D1620705D530228DF804204FF08E
:1050D00001097F1E3278582A04D039A20C920CAAFA
:1050E00002920BE03BA2F9E75B46009AFBF7A8FBB4
:1050F0000C9B9B5C029A521E0292137050EA0102B2
:10510000F2D1029804A9081A00F1200B600702D519
:1051100024F4803400E001275F4502DDA7EB0B009B
:1051200000E0002000EB0B01009003984944401A76
:105130000390E00306D453462146179A039800F0E3
:10514000A9F90544002706E001A85246C05D179959
:1051500090476D1C7F1C4F45F6DBE0030CD5534692
:105160002146179A039800F095F9054404E0302091
:105170005246179990476D1C0099481E00900029CF
:10518000F5DC08E00298029952460078491C029129
:10519000179990476D1CBBF10001ABF1010BF1DCDD
:1051A0005BE100F065F90544761C307800287FF457
:1051B0000DAE19B02846BDE8F08F000009280100A7
:1051C000303132333435363738396162636465667D
:1051D000000000003031323334353637383941423F
:1051E0004344454600000000600700D4062708F14C
:1051F000070020F00700F0E80223804603F0004C8F
:105200005FEA0C0001D097A009E0200501D596A027
:1052100005E0E00701D095A001E0AFF24C0013904B
:10522000307823F0004365280CD006DC452809D0EF
:1052300046281DD047287FD13BE0662818D0672834
:105240007AD136E00021112F01DB112000E0781C1B
:10525000CDE9000104A90CA8FFF7EEFCDDE90D0182
:105260000C9A4FF0000B07F10109109200914EE0EB
:105270004FF000400097CDE9011004A90CA8FFF7FA
:10528000DBFCDDE90D020C9B0F994FF0000B914602
:105290001093009211B9791C00EB0109B7EB0900DA
:1052A00003D4C0F1FF3B07F10109A9EB070001900E
:1052B00042E0012F00DA01270021112F01DD11202A
:1052C00000E03846CDE9000104A90CA8FFF7B4FCC2
:1052D000DDE90D010C9A00914FF0000BB9461092D8
:1052E00021070FD4009A4A4503DA914601E0A9F15B
:1052F0000109B9F1010F05DD109AA9F10101515C15
:105300003029F4D0B84202DA10F1040F03DA012197
:10531000CDE9011010E0002803DC8344A9EB000173
:1053200002E0411C494500DD8946A0EB0B00401C12
:1053300001904FF000400290200705D401984845A5
:1053400002DB4FF0FF30019000208DF84B000298F7
:105350000DF14B07B0F1004F25D002200C902B200F
:105360000D90029800280CDA404202902D200D90FA
:1053700007E00A210298FBF74DFA3031029007F856
:10538000011D0C99481E0C900029F2DC029800289F
:10539000EFD1791E0D980870307800F0200040F0B1
:1053A000450007F8020D11A8C01BC01D02901398FC
:1053B000007800B1012000EB0901019801EBE071D8
:1053C000029801440398401A401E0390E00306D45B
:1053D00053462146179A039800F05CF80544139849
:1053E000007818B15246179990476D1CE00323D5F9
:1053F00053462146179A039800F04CF805441BE0E9
:10540000BBF1000F07DB0098584504DD1098179991
:1054100010F80B0001E01799302052469047019890
:105420000BF1010B401E05F10105019004D12E2066
:105430005246179990476D1CB9F10001A9F1010975
:10544000DEDC05E017F8010B5246179990476D1CFA
:105450000299481E02900029F4DC53462146179A0F
:1054600003989EE62D0000002B00000020000000A5
:105470002DE9F041044600251E461746880404D451
:1054800005E039462020B0476D1C641EF9D528463A
:10549000BDE8F0812DE9F041044600251E46904606
:1054A000C80301D5302700E02027880404D505E093
:1054B00041463846B0476D1C641EF9D52846BDE804
:1054C000F0810A68531C0B60107070478EB0FEF7B5
:1054D0000FFD71E1002407E0B84800EB840120468D
:1054E000FEF7B6F8601CC4B2052CF5DBB3490869B9
:1054F000FBF74CF904460D46B049C868FBF746F97E
:1055000006460F46AD498868FBF740F98046894654
:10551000AA494868FBF73AF982468B46A7490868CA
:10552000FBF734F9CDE90C012F21A5A0FAF77FFE96
:1055300028B12F21A2A0FAF77AFE401C00E0A0A01B
:105540005C210A90FAF773FE88B12F219CA0FAF72C
:105550006EFE28B12F219AA0FAF769FE401C00E0E8
:1055600097A05C210A90FAF762FE401C0BE02F2105
:1055700093A0FAF75CFE28B12F2191A0FAF757FE0D
:10558000401C00E08EA0CDE902ABCDE90489CDE955
:105590000667CDE908450B90DDE90C019722CDE9BE
:1055A00000018CA00B99FFF78BFA9548FEF7F0F8F5
:1055B00093480068FBF7EAF804460D462F2180A0C7
:1055C000FAF735FE28B12F217DA0FAF730FE401CF6
:1055D00000E07BA007465C21FAF729FE88B12F2165
:1055E00077A0FAF724FE28B12F2175A0FAF71FFE45
:1055F000401C00E072A007465C21FAF718FE401C30
:105600000BE02F216EA0FAF712FE28B12F216CA01B
:10561000FAF70DFE401C00E069A006469F223146C5
:1056200078A0CDE90045FFF74BFA7A48FEF7C2F9BA
:1056300078480068FBF7AAF804460D462F2160A0C1
:10564000FAF7F5FD28B12F215DA0FAF7F0FD401C17
:1056500000E05BA007465C21FAF7E9FD88B12F2145
:1056600057A0FAF7E4FD28B12F2155A0FAF7DFFD86
:10567000401C00E052A007465C21FAF7D8FD401C10
:105680000BE02F214EA0FAF7D2FD28B12F214CA01C
:10569000FAF7CDFD401C00E049A00646A2223146A3
:1056A0005DA0CDE90045FFF70BFA6148FEF73CFB32
:1056B0005F480068FBF76AF804460D462F2140A0BA
:1056C000FAF7B5FD28B12F213DA0FAF7B0FD401C37
:1056D00000E03BA007465C21FAF7A9FD88B12F2125
:1056E00037A0FAF7A4FD28B12F2135A0FAF79FFDC6
:1056F000401C00E032A007465C21FAF798FD401CF0
:105700000BE02F212EA0FAF792FD28B12F212CA01B
:10571000FAF78DFD401C00E029A00646A52231467F
:1057200044A0CDE90045FFF7CBF94148484902685C
:105730002248FEF7E1F946480068FBF727F80446DF
:105740000D462F211EA0FAF772FD28B12F211CA0B3
:10575000FAF76DFD401C00E019A007465C21FAF73E
:1057600066FD88B12F2116A0FAF761FD28B12F211F
:1057700013A0FAF75CFD401C00E011A007465C2175
:10578000FAF755FD401C0BE02F210DA0FAF74FFD55
:1057900028B12F210AA0FAF74AFD401C00E008A01A
:1057A0000646A82231462BA0CDE90045FFF788F92F
:1057B0004FF4FA7001F054F98CE600003802002032
:1057C0002E2E5C4170705C4170705F5461736B2E63
:1057D000630000005B25733A25645D563A20252E50
:1057E00030326620252E30326620252E303266205B
:1057F000252E30326620252E3032660A0000000049
:10580000200000205B25733A25645D493A252E303F
:1058100032660A00240000205B25733A25645D503F
:1058200061636B20563A252E3032660A0000000074
:10583000280000205B25733A25645D74656D7065F2
:105840007261747572653A252E3032660A00000066
:105850002C0000205B25733A25645D534F433A20AA
:10586000252E3032660A0000A4B0FEF7E5FE6FE197
:105870000020039003A904A8FEF7F8FE9DF80C0091
:1058800000286EDD002459E12F21B2A0FAF7CFFCE9
:1058900028B12F21AFA0FAF7CAFC401C00E0ADA050
:1058A00006465C21FAF7C3FC88B12F21A9A0FAF7BC
:1058B000BEFC28B12F21A7A0FAF7B9FC401C00E0DC
:1058C000A4A006465C21FAF7B2FC401C0BE02F2195
:1058D000A0A0FAF7ACFC28B12F219EA0FAF7A7FCF4
:1058E000401C00E09BA0054604A800EB0410007BD0
:1058F00004A901EB0411091D04AA02EB04121268A9
:105900002346CDE900210290C822294696A0FFF740
:10591000D7F804A901EB0411081D9DA1FAF779FC41
:1059200000283CD10120FDF72DFE2F2189A0FAF798
:105930007EFC28B12F2187A0FAF779FC401C00E0FB
:1059400084A006465C21FAF772FC90B12F2181A059
:10595000FAF76DFC30B12F217EA0FAF768FC401CED
:1059600001E0F0E07BA006465C21FAF760FC401CF9
:105970000BE02F2177A0FAF75AFC28B12F2175A050
:10598000FAF755FC401C00E072A0054604A800EBA5
:105990000410031DCE2229467EA0FFF791F804A92A
:1059A00001EB0411081D7FA1FAF733FC00283AD15E
:1059B000FDF7E8FD2F2167A0FAF739FC28B12F2168
:1059C00064A0FAF734FC401C00E062A006465C21AB
:1059D000FAF72DFC88B12F215EA0FAF728FC28B138
:1059E0002F215CA0FAF723FC401C00E059A00646DA
:1059F0005C21FAF71CFC401C0BE02F2155A0FAF7A4
:105A000016FC28B12F2153A0FAF711FC401C00E02E
:105A100050A0054604A800EB0410031DD42229461B
:105A20005CA0FFF74DF804A901EB0411081D5EA16D
:105A3000FAF7EFFB00283BD10120FDF73DFD2F21B8
:105A400044A0FAF7F4FB28B12F2142A0FAF7EFFBAC
:105A5000401C00E03FA006465C21FAF7E8FB88B155
:105A60002F213CA0FAF7E3FB28B12F2139A0FAF748
:105A7000DEFB401C00E037A006465C21FAF7D7FBAE
:105A8000401C0BE02F2133A0FAF7D1FB28B12F21C6
:105A900030A0FAF7CCFB401C00E02EA0054604A87D
:105AA00000EB0410031DDA2229463AA0FFF708F89C
:105AB00004A901EB0411081D3CA1FAF7AAFB002878
:105AC0003AD1FDF7F9FC2F2122A0FAF7B0FB28B15B
:105AD0002F2120A0FAF7ABFB401C00E01DA00646DA
